{
  "_format": "hh-sol-artifact-1",
  "contractName": "tradeOffer",
  "sourceName": "contracts/tradeOffer.sol",
  "abi": [
    {
      "inputs": [
        {
          "internalType": "address",
          "name": "_token1",
          "type": "address"
        },
        {
          "internalType": "address",
          "name": "_token2",
          "type": "address"
        },
        {
          "internalType": "address",
          "name": "_token3",
          "type": "address"
        },
        {
          "internalType": "address",
          "name": "_token4",
          "type": "address"
        },
        {
          "internalType": "address",
          "name": "_token5",
          "type": "address"
        }
      ],
      "stateMutability": "nonpayable",
      "type": "constructor"
    },
    {
      "inputs": [
        {
          "internalType": "uint256",
          "name": "_offerId",
          "type": "uint256"
        }
      ],
      "name": "acceptOffer",
      "outputs": [],
      "stateMutability": "payable",
      "type": "function"
    },
    {
      "inputs": [],
      "name": "getContractAssets",
      "outputs": [
        {
          "internalType": "uint256",
          "name": "Clay",
          "type": "uint256"
        },
        {
          "internalType": "uint256",
          "name": "Fish",
          "type": "uint256"
        },
        {
          "internalType": "uint256",
          "name": "Rock",
          "type": "uint256"
        },
        {
          "internalType": "uint256",
          "name": "Wood",
          "type": "uint256"
        },
        {
          "internalType": "uint256",
          "name": "Wool",
          "type": "uint256"
        }
      ],
      "stateMutability": "view",
      "type": "function"
    },
    {
      "inputs": [
        {
          "internalType": "uint256",
          "name": "_offerId",
          "type": "uint256"
        }
      ],
      "name": "getOffer",
      "outputs": [
        {
          "internalType": "uint256",
          "name": "",
          "type": "uint256"
        },
        {
          "internalType": "uint256",
          "name": "",
          "type": "uint256"
        },
        {
          "internalType": "uint256",
          "name": "",
          "type": "uint256"
        },
        {
          "internalType": "uint256",
          "name": "",
          "type": "uint256"
        },
        {
          "internalType": "uint256",
          "name": "",
          "type": "uint256"
        },
        {
          "internalType": "uint256",
          "name": "",
          "type": "uint256"
        },
        {
          "internalType": "uint256",
          "name": "",
          "type": "uint256"
        },
        {
          "internalType": "uint256",
          "name": "",
          "type": "uint256"
        },
        {
          "internalType": "uint256",
          "name": "",
          "type": "uint256"
        },
        {
          "internalType": "uint256",
          "name": "",
          "type": "uint256"
        }
      ],
      "stateMutability": "view",
      "type": "function"
    },
    {
      "inputs": [
        {
          "internalType": "uint256",
          "name": "_offerId",
          "type": "uint256"
        }
      ],
      "name": "getOfferString",
      "outputs": [
        {
          "internalType": "string",
          "name": "",
          "type": "string"
        }
      ],
      "stateMutability": "view",
      "type": "function"
    },
    {
      "inputs": [
        {
          "internalType": "uint256",
          "name": "_offerAmount1",
          "type": "uint256"
        },
        {
          "internalType": "uint256",
          "name": "_offerAmount2",
          "type": "uint256"
        },
        {
          "internalType": "uint256",
          "name": "_offerAmount3",
          "type": "uint256"
        },
        {
          "internalType": "uint256",
          "name": "_offerAmount4",
          "type": "uint256"
        },
        {
          "internalType": "uint256",
          "name": "_offerAmount5",
          "type": "uint256"
        },
        {
          "internalType": "uint256",
          "name": "_wantedAmount1",
          "type": "uint256"
        },
        {
          "internalType": "uint256",
          "name": "_wantedAmount2",
          "type": "uint256"
        },
        {
          "internalType": "uint256",
          "name": "_wantedAmount3",
          "type": "uint256"
        },
        {
          "internalType": "uint256",
          "name": "_wantedAmount4",
          "type": "uint256"
        },
        {
          "internalType": "uint256",
          "name": "_wantedAmount5",
          "type": "uint256"
        }
      ],
      "name": "makeOffer",
      "outputs": [],
      "stateMutability": "payable",
      "type": "function"
    },
    {
      "inputs": [],
      "name": "token1",
      "outputs": [
        {
          "internalType": "address",
          "name": "",
          "type": "address"
        }
      ],
      "stateMutability": "view",
      "type": "function"
    },
    {
      "inputs": [],
      "name": "token2",
      "outputs": [
        {
          "internalType": "address",
          "name": "",
          "type": "address"
        }
      ],
      "stateMutability": "view",
      "type": "function"
    },
    {
      "inputs": [],
      "name": "token3",
      "outputs": [
        {
          "internalType": "address",
          "name": "",
          "type": "address"
        }
      ],
      "stateMutability": "view",
      "type": "function"
    },
    {
      "inputs": [],
      "name": "token4",
      "outputs": [
        {
          "internalType": "address",
          "name": "",
          "type": "address"
        }
      ],
      "stateMutability": "view",
      "type": "function"
    },
    {
      "inputs": [],
      "name": "token5",
      "outputs": [
        {
          "internalType": "address",
          "name": "",
          "type": "address"
        }
      ],
      "stateMutability": "view",
      "type": "function"
    },
    {
      "inputs": [
        {
          "internalType": "uint256",
          "name": "_offerId",
          "type": "uint256"
        }
      ],
      "name": "withdraw",
      "outputs": [],
      "stateMutability": "payable",
      "type": "function"
    }
  ],
  "bytecode": "0x60806040523480156200001157600080fd5b506040516200382c3803806200382c8339818101604052810190620000379190620001f0565b846000806101000a81548173ffffffffffffffffffffffffffffffffffffffff021916908373ffffffffffffffffffffffffffffffffffffffff16021790555083600160006101000a81548173ffffffffffffffffffffffffffffffffffffffff021916908373ffffffffffffffffffffffffffffffffffffffff16021790555082600260006101000a81548173ffffffffffffffffffffffffffffffffffffffff021916908373ffffffffffffffffffffffffffffffffffffffff16021790555081600360006101000a81548173ffffffffffffffffffffffffffffffffffffffff021916908373ffffffffffffffffffffffffffffffffffffffff16021790555080600460006101000a81548173ffffffffffffffffffffffffffffffffffffffff021916908373ffffffffffffffffffffffffffffffffffffffff160217905550505050505062000278565b600080fd5b600073ffffffffffffffffffffffffffffffffffffffff82169050919050565b6000620001b8826200018b565b9050919050565b620001ca81620001ab565b8114620001d657600080fd5b50565b600081519050620001ea81620001bf565b92915050565b600080600080600060a086880312156200020f576200020e62000186565b5b60006200021f88828901620001d9565b95505060206200023288828901620001d9565b94505060406200024588828901620001d9565b93505060606200025888828901620001d9565b92505060806200026b88828901620001d9565b9150509295509295909350565b6135a480620002886000396000f3fe60806040526004361061009c5760003560e01c806379950f551161006457806379950f5514610188578063b53408e8146101b3578063c815729d146101f0578063d21220a71461020c578063ef14101e14610237578063f834ec5a146102625761009c565b806325be124e146100a15780632e1a7d4d146100cc5780634579268a146100e85780635b6f5e531461012e5780635c62455f14610159575b600080fd5b3480156100ad57600080fd5b506100b661027e565b6040516100c39190612769565b60405180910390f35b6100e660048036038101906100e191906127bf565b6102a4565b005b3480156100f457600080fd5b5061010f600480360381019061010a91906127bf565b610a80565b6040516101259a999897969594939291906127fb565b60405180910390f35b34801561013a57600080fd5b50610143610afa565b6040516101509190612769565b60405180910390f35b34801561016557600080fd5b5061016e610b20565b60405161017f959493929190612897565b60405180910390f35b34801561019457600080fd5b5061019d610e60565b6040516101aa9190612769565b60405180910390f35b3480156101bf57600080fd5b506101da60048036038101906101d591906127bf565b610e86565b6040516101e7919061297a565b60405180910390f35b61020a600480360381019061020591906127bf565b61110e565b005b34801561021857600080fd5b50610221611e31565b60405161022e9190612769565b60405180910390f35b34801561024357600080fd5b5061024c611e55565b6040516102599190612769565b60405180910390f35b61027c6004803603810190610277919061299c565b611e7b565b005b600160009054906101000a900473ffffffffffffffffffffffffffffffffffffffff1681565b600081116102e7576040517f08c379a00000000000000000000000000000000000000000000000000000000081526004016102de90612ac7565b60405180910390fd5b6001151560056000838152602001908152602001600020600d0160009054906101000a900460ff16151514610351576040517f08c379a000000000000000000000000000000000000000000000000000000000815260040161034890612b33565b60405180910390fd5b6005600082815260200190815260200160002060010160009054906101000a900473ffffffffffffffffffffffffffffffffffffffff1673ffffffffffffffffffffffffffffffffffffffff163373ffffffffffffffffffffffffffffffffffffffff16146103f5576040517f08c379a00000000000000000000000000000000000000000000000000000000081526004016103ec90612bc5565b60405180910390fd5b6202a30060056000838152602001908152602001600020600c015461041a9190612c14565b421161045b576040517f08c379a000000000000000000000000000000000000000000000000000000000815260040161045290612c94565b60405180910390fd5b6000600560008381526020019081526020016000206002015411156105705760008054906101000a900473ffffffffffffffffffffffffffffffffffffffff1673ffffffffffffffffffffffffffffffffffffffff166323b872dd303360056000868152602001908152602001600020600201546040518463ffffffff1660e01b81526004016104ed93929190612cb4565b6020604051808303816000875af115801561050c573d6000803e3d6000fd5b505050506040513d601f19601f820116820180604052508101906105309190612d23565b61056f576040517f08c379a000000000000000000000000000000000000000000000000000000000815260040161056690612d9c565b60405180910390fd5b5b60006005600083815260200190815260200160002060030154111561068757600160009054906101000a900473ffffffffffffffffffffffffffffffffffffffff1673ffffffffffffffffffffffffffffffffffffffff166323b872dd303360056000868152602001908152602001600020600301546040518463ffffffff1660e01b815260040161060493929190612cb4565b6020604051808303816000875af1158015610623573d6000803e3d6000fd5b505050506040513d601f19601f820116820180604052508101906106479190612d23565b610686576040517f08c379a000000000000000000000000000000000000000000000000000000000815260040161067d90612e08565b60405180910390fd5b5b60006005600083815260200190815260200160002060040154111561079e57600260009054906101000a900473ffffffffffffffffffffffffffffffffffffffff1673ffffffffffffffffffffffffffffffffffffffff166323b872dd303360056000868152602001908152602001600020600401546040518463ffffffff1660e01b815260040161071b93929190612cb4565b6020604051808303816000875af115801561073a573d6000803e3d6000fd5b505050506040513d601f19601f8201168201806040525081019061075e9190612d23565b61079d576040517f08c379a000000000000000000000000000000000000000000000000000000000815260040161079490612e74565b60405180910390fd5b5b6000600560008381526020019081526020016000206005015411156108b557600360009054906101000a900473ffffffffffffffffffffffffffffffffffffffff1673ffffffffffffffffffffffffffffffffffffffff166323b872dd303360056000868152602001908152602001600020600501546040518463ffffffff1660e01b815260040161083293929190612cb4565b6020604051808303816000875af1158015610851573d6000803e3d6000fd5b505050506040513d601f19601f820116820180604052508101906108759190612d23565b6108b4576040517f08c379a00000000000000000000000000000000000000000000000000000000081526004016108ab90612ee0565b60405180910390fd5b5b6000600560008381526020019081526020016000206006015411156109cc57600460009054906101000a900473ffffffffffffffffffffffffffffffffffffffff1673ffffffffffffffffffffffffffffffffffffffff166323b872dd303360056000868152602001908152602001600020600601546040518463ffffffff1660e01b815260040161094993929190612cb4565b6020604051808303816000875af1158015610968573d6000803e3d6000fd5b505050506040513d601f19601f8201168201806040525081019061098c9190612d23565b6109cb576040517f08c379a00000000000000000000000000000000000000000000000000000000081526004016109c290612f4c565b60405180910390fd5b5b600560008281526020019081526020016000206000808201600090556001820160006101000a81549073ffffffffffffffffffffffffffffffffffffffff021916905560028201600090556003820160009055600482016000905560058201600090556006820160009055600782016000905560088201600090556009820160009055600a820160009055600b820160009055600c820160009055600d820160006101000a81549060ff0219169055505050565b6000806000806000806000806000806000600560008d815260200190815260200160002090508060020154816003015482600401548360050154846006015485600701548660080154876009015488600a015489600b01549a509a509a509a509a509a509a509a509a509a50509193959799509193959799565b600460009054906101000a900473ffffffffffffffffffffffffffffffffffffffff1681565b60008060008060008060008054906101000a900473ffffffffffffffffffffffffffffffffffffffff1673ffffffffffffffffffffffffffffffffffffffff166370a08231306040518263ffffffff1660e01b8152600401610b829190612769565b602060405180830381865afa158015610b9f573d6000803e3d6000fd5b505050506040513d601f19601f82011682018060405250810190610bc39190612f81565b90506000600160009054906101000a900473ffffffffffffffffffffffffffffffffffffffff1673ffffffffffffffffffffffffffffffffffffffff166370a08231306040518263ffffffff1660e01b8152600401610c229190612769565b602060405180830381865afa158015610c3f573d6000803e3d6000fd5b505050506040513d601f19601f82011682018060405250810190610c639190612f81565b90506000600260009054906101000a900473ffffffffffffffffffffffffffffffffffffffff1673ffffffffffffffffffffffffffffffffffffffff166370a08231306040518263ffffffff1660e01b8152600401610cc29190612769565b602060405180830381865afa158015610cdf573d6000803e3d6000fd5b505050506040513d601f19601f82011682018060405250810190610d039190612f81565b90506000600360009054906101000a900473ffffffffffffffffffffffffffffffffffffffff1673ffffffffffffffffffffffffffffffffffffffff166370a08231306040518263ffffffff1660e01b8152600401610d629190612769565b602060405180830381865afa158015610d7f573d6000803e3d6000fd5b505050506040513d601f19601f82011682018060405250810190610da39190612f81565b90506000600460009054906101000a900473ffffffffffffffffffffffffffffffffffffffff1673ffffffffffffffffffffffffffffffffffffffff166370a08231306040518263ffffffff1660e01b8152600401610e029190612769565b602060405180830381865afa158015610e1f573d6000803e3d6000fd5b505050506040513d601f19601f82011682018060405250810190610e439190612f81565b905084848484849950995099509950995050505050509091929394565b600360009054906101000a900473ffffffffffffffffffffffffffffffffffffffff1681565b6060600080600080600080600080600080610ea08c610a80565b9950995099509950995099509950995099509950600060405180602001604052806000815250905060008b1115610efd5780610edb8c6125a4565b604051602001610eec929190613036565b604051602081830303815290604052505b60008a1115610f325780610f108b6125a4565b604051602001610f219291906130b1565b604051602081830303815290604052505b6000891115610f675780610f458a6125a4565b604051602001610f5692919061312c565b604051602081830303815290604052505b6000881115610f9c5780610f7a896125a4565b604051602001610f8b9291906131a7565b604051602081830303815290604052505b6000871115610fd15780610faf886125a4565b604051602001610fc0929190613222565b604051602081830303815290604052505b80604051602001610fe2919061329d565b6040516020818303038152906040525060008611156110275780611005876125a4565b604051602001611016929190613036565b604051602081830303815290604052505b600085111561105c578061103a866125a4565b60405160200161104b9291906130b1565b604051602081830303815290604052505b6000841115611091578061106f856125a4565b60405160200161108092919061312c565b604051602081830303815290604052505b60008311156110c657806110a4846125a4565b6040516020016110b59291906131a7565b604051602081830303815290604052505b60008211156110fb57806110d9836125a4565b6040516020016110ea929190613222565b604051602081830303815290604052505b809b505050505050505050505050919050565b60008111611151576040517f08c379a000000000000000000000000000000000000000000000000000000000815260040161114890612ac7565b60405180910390fd5b6001151560056000838152602001908152602001600020600d0160009054906101000a900460ff161515146111bb576040517f08c379a00000000000000000000000000000000000000000000000000000000081526004016111b29061330b565b60405180910390fd5b6005600082815260200190815260200160002060010160009054906101000a900473ffffffffffffffffffffffffffffffffffffffff1673ffffffffffffffffffffffffffffffffffffffff163373ffffffffffffffffffffffffffffffffffffffff160361125f576040517f08c379a000000000000000000000000000000000000000000000000000000000815260040161125690613377565b60405180910390fd5b60006005600083815260200190815260200160002060010160009054906101000a900473ffffffffffffffffffffffffffffffffffffffff1690506000600560008481526020019081526020016000206002015411156113af5760008054906101000a900473ffffffffffffffffffffffffffffffffffffffff1673ffffffffffffffffffffffffffffffffffffffff166323b872dd303360056000878152602001908152602001600020600201546040518463ffffffff1660e01b815260040161132c93929190612cb4565b6020604051808303816000875af115801561134b573d6000803e3d6000fd5b505050506040513d601f19601f8201168201806040525081019061136f9190612d23565b6113ae576040517f08c379a00000000000000000000000000000000000000000000000000000000081526004016113a590612d9c565b60405180910390fd5b5b6000600560008481526020019081526020016000206003015411156114c657600160009054906101000a900473ffffffffffffffffffffffffffffffffffffffff1673ffffffffffffffffffffffffffffffffffffffff166323b872dd303360056000878152602001908152602001600020600301546040518463ffffffff1660e01b815260040161144393929190612cb4565b6020604051808303816000875af1158015611462573d6000803e3d6000fd5b505050506040513d601f19601f820116820180604052508101906114869190612d23565b6114c5576040517f08c379a00000000000000000000000000000000000000000000000000000000081526004016114bc90612e08565b60405180910390fd5b5b6000600560008481526020019081526020016000206004015411156115dd57600260009054906101000a900473ffffffffffffffffffffffffffffffffffffffff1673ffffffffffffffffffffffffffffffffffffffff166323b872dd303360056000878152602001908152602001600020600401546040518463ffffffff1660e01b815260040161155a93929190612cb4565b6020604051808303816000875af1158015611579573d6000803e3d6000fd5b505050506040513d601f19601f8201168201806040525081019061159d9190612d23565b6115dc576040517f08c379a00000000000000000000000000000000000000000000000000000000081526004016115d390612e74565b60405180910390fd5b5b6000600560008481526020019081526020016000206005015411156116f457600360009054906101000a900473ffffffffffffffffffffffffffffffffffffffff1673ffffffffffffffffffffffffffffffffffffffff166323b872dd303360056000878152602001908152602001600020600501546040518463ffffffff1660e01b815260040161167193929190612cb4565b6020604051808303816000875af1158015611690573d6000803e3d6000fd5b505050506040513d601f19601f820116820180604052508101906116b49190612d23565b6116f3576040517f08c379a00000000000000000000000000000000000000000000000000000000081526004016116ea90612ee0565b60405180910390fd5b5b60006005600084815260200190815260200160002060060154111561180b57600460009054906101000a900473ffffffffffffffffffffffffffffffffffffffff1673ffffffffffffffffffffffffffffffffffffffff166323b872dd303360056000878152602001908152602001600020600601546040518463ffffffff1660e01b815260040161178893929190612cb4565b6020604051808303816000875af11580156117a7573d6000803e3d6000fd5b505050506040513d601f19601f820116820180604052508101906117cb9190612d23565b61180a576040517f08c379a000000000000000000000000000000000000000000000000000000000815260040161180190612f4c565b60405180910390fd5b5b6000600560008481526020019081526020016000206007015411156119205760008054906101000a900473ffffffffffffffffffffffffffffffffffffffff1673ffffffffffffffffffffffffffffffffffffffff166323b872dd338360056000878152602001908152602001600020600701546040518463ffffffff1660e01b815260040161189d93929190612cb4565b6020604051808303816000875af11580156118bc573d6000803e3d6000fd5b505050506040513d601f19601f820116820180604052508101906118e09190612d23565b61191f576040517f08c379a000000000000000000000000000000000000000000000000000000000815260040161191690612d9c565b60405180910390fd5b5b600060056000848152602001908152602001600020600801541115611a3757600160009054906101000a900473ffffffffffffffffffffffffffffffffffffffff1673ffffffffffffffffffffffffffffffffffffffff166323b872dd338360056000878152602001908152602001600020600801546040518463ffffffff1660e01b81526004016119b493929190612cb4565b6020604051808303816000875af11580156119d3573d6000803e3d6000fd5b505050506040513d601f19601f820116820180604052508101906119f79190612d23565b611a36576040517f08c379a0000000000000000000000000000000000000000000000000000000008152600401611a2d90612e08565b60405180910390fd5b5b600060056000848152602001908152602001600020600901541115611b4e57600260009054906101000a900473ffffffffffffffffffffffffffffffffffffffff1673ffffffffffffffffffffffffffffffffffffffff166323b872dd338360056000878152602001908152602001600020600901546040518463ffffffff1660e01b8152600401611acb93929190612cb4565b6020604051808303816000875af1158015611aea573d6000803e3d6000fd5b505050506040513d601f19601f82011682018060405250810190611b0e9190612d23565b611b4d576040517f08c379a0000000000000000000000000000000000000000000000000000000008152600401611b4490612e74565b60405180910390fd5b5b600060056000848152602001908152602001600020600a01541115611c6557600360009054906101000a900473ffffffffffffffffffffffffffffffffffffffff1673ffffffffffffffffffffffffffffffffffffffff166323b872dd338360056000878152602001908152602001600020600a01546040518463ffffffff1660e01b8152600401611be293929190612cb4565b6020604051808303816000875af1158015611c01573d6000803e3d6000fd5b505050506040513d601f19601f82011682018060405250810190611c259190612d23565b611c64576040517f08c379a0000000000000000000000000000000000000000000000000000000008152600401611c5b90612ee0565b60405180910390fd5b5b600060056000848152602001908152602001600020600b01541115611d7c57600460009054906101000a900473ffffffffffffffffffffffffffffffffffffffff1673ffffffffffffffffffffffffffffffffffffffff166323b872dd338360056000878152602001908152602001600020600b01546040518463ffffffff1660e01b8152600401611cf993929190612cb4565b6020604051808303816000875af1158015611d18573d6000803e3d6000fd5b505050506040513d601f19601f82011682018060405250810190611d3c9190612d23565b611d7b576040517f08c379a0000000000000000000000000000000000000000000000000000000008152600401611d7290612f4c565b60405180910390fd5b5b600560008381526020019081526020016000206000808201600090556001820160006101000a81549073ffffffffffffffffffffffffffffffffffffffff021916905560028201600090556003820160009055600482016000905560058201600090556006820160009055600782016000905560088201600090556009820160009055600a820160009055600b820160009055600c820160009055600d820160006101000a81549060ff021916905550505050565b60008054906101000a900473ffffffffffffffffffffffffffffffffffffffff1681565b600260009054906101000a900473ffffffffffffffffffffffffffffffffffffffff1681565b60008a1180611e8a5750600089115b80611e955750600088115b80611ea05750600087115b80611eab5750600086115b8015611ee357506000851180611ec15750600084115b80611ecc5750600083115b80611ed75750600082115b80611ee25750600081115b5b611f22576040517f08c379a0000000000000000000000000000000000000000000000000000000008152600401611f19906133e3565b60405180910390fd5b60008a111561200b5760008054906101000a900473ffffffffffffffffffffffffffffffffffffffff1673ffffffffffffffffffffffffffffffffffffffff166323b872dd33308d6040518463ffffffff1660e01b8152600401611f8893929190612cb4565b6020604051808303816000875af1158015611fa7573d6000803e3d6000fd5b505050506040513d601f19601f82011682018060405250810190611fcb9190612d23565b61200a576040517f08c379a000000000000000000000000000000000000000000000000000000000815260040161200190612d9c565b60405180910390fd5b5b60008911156120f657600160009054906101000a900473ffffffffffffffffffffffffffffffffffffffff1673ffffffffffffffffffffffffffffffffffffffff166323b872dd33308c6040518463ffffffff1660e01b815260040161207393929190612cb4565b6020604051808303816000875af1158015612092573d6000803e3d6000fd5b505050506040513d601f19601f820116820180604052508101906120b69190612d23565b6120f5576040517f08c379a00000000000000000000000000000000000000000000000000000000081526004016120ec90612e08565b60405180910390fd5b5b60008811156121e157600260009054906101000a900473ffffffffffffffffffffffffffffffffffffffff1673ffffffffffffffffffffffffffffffffffffffff166323b872dd33308b6040518463ffffffff1660e01b815260040161215e93929190612cb4565b6020604051808303816000875af115801561217d573d6000803e3d6000fd5b505050506040513d601f19601f820116820180604052508101906121a19190612d23565b6121e0576040517f08c379a00000000000000000000000000000000000000000000000000000000081526004016121d790612e74565b60405180910390fd5b5b60008711156122cc57600360009054906101000a900473ffffffffffffffffffffffffffffffffffffffff1673ffffffffffffffffffffffffffffffffffffffff166323b872dd33308a6040518463ffffffff1660e01b815260040161224993929190612cb4565b6020604051808303816000875af1158015612268573d6000803e3d6000fd5b505050506040513d601f19601f8201168201806040525081019061228c9190612d23565b6122cb576040517f08c379a00000000000000000000000000000000000000000000000000000000081526004016122c290612f4c565b60405180910390fd5b5b60008611156123b757600460009054906101000a900473ffffffffffffffffffffffffffffffffffffffff1673ffffffffffffffffffffffffffffffffffffffff166323b872dd3330896040518463ffffffff1660e01b815260040161233493929190612cb4565b6020604051808303816000875af1158015612353573d6000803e3d6000fd5b505050506040513d601f19601f820116820180604052508101906123779190612d23565b6123b6576040517f08c379a00000000000000000000000000000000000000000000000000000000081526004016123ad90612ee0565b60405180910390fd5b5b60006123c36006612704565b90506123cf6006612712565b806005600083815260200190815260200160002060000181905550336005600083815260200190815260200160002060010160006101000a81548173ffffffffffffffffffffffffffffffffffffffff021916908373ffffffffffffffffffffffffffffffffffffffff1602179055508a60056000838152602001908152602001600020600201819055508960056000838152602001908152602001600020600301819055508860056000838152602001908152602001600020600401819055508760056000838152602001908152602001600020600501819055508660056000838152602001908152602001600020600601819055508560056000838152602001908152602001600020600701819055508460056000838152602001908152602001600020600801819055508360056000838152602001908152602001600020600901819055508260056000838152602001908152602001600020600a01819055508160056000838152602001908152602001600020600b01819055504260056000838152602001908152602001600020600c0181905550600160056000838152602001908152602001600020600d0160006101000a81548160ff0219169083151502179055505050505050505050505050565b6060600082036125eb576040518060400160405280600181526020017f300000000000000000000000000000000000000000000000000000000000000081525090506126ff565b600082905060005b6000821461261d57808061260690613403565b915050600a82612616919061347a565b91506125f3565b60008167ffffffffffffffff811115612639576126386134ab565b5b6040519080825280601f01601f19166020018201604052801561266b5781602001600182028036833780820191505090505b5090505b600085146126f85760018261268491906134da565b9150600a85612693919061350e565b603061269f9190612c14565b60f81b8183815181106126b5576126b461353f565b5b60200101907effffffffffffffffffffffffffffffffffffffffffffffffffffffffffffff1916908160001a905350600a856126f1919061347a565b945061266f565b8093505050505b919050565b600081600001549050919050565b6001816000016000828254019250508190555050565b600073ffffffffffffffffffffffffffffffffffffffff82169050919050565b600061275382612728565b9050919050565b61276381612748565b82525050565b600060208201905061277e600083018461275a565b92915050565b600080fd5b6000819050919050565b61279c81612789565b81146127a757600080fd5b50565b6000813590506127b981612793565b92915050565b6000602082840312156127d5576127d4612784565b5b60006127e3848285016127aa565b91505092915050565b6127f581612789565b82525050565b600061014082019050612811600083018d6127ec565b61281e602083018c6127ec565b61282b604083018b6127ec565b612838606083018a6127ec565b61284560808301896127ec565b61285260a08301886127ec565b61285f60c08301876127ec565b61286c60e08301866127ec565b61287a6101008301856127ec565b6128886101208301846127ec565b9b9a5050505050505050505050565b600060a0820190506128ac60008301886127ec565b6128b960208301876127ec565b6128c660408301866127ec565b6128d360608301856127ec565b6128e060808301846127ec565b9695505050505050565b600081519050919050565b600082825260208201905092915050565b60005b83811015612924578082015181840152602081019050612909565b60008484015250505050565b6000601f19601f8301169050919050565b600061294c826128ea565b61295681856128f5565b9350612966818560208601612906565b61296f81612930565b840191505092915050565b600060208201905081810360008301526129948184612941565b905092915050565b6000806000806000806000806000806101408b8d0312156129c0576129bf612784565b5b60006129ce8d828e016127aa565b9a505060206129df8d828e016127aa565b99505060406129f08d828e016127aa565b9850506060612a018d828e016127aa565b9750506080612a128d828e016127aa565b96505060a0612a238d828e016127aa565b95505060c0612a348d828e016127aa565b94505060e0612a458d828e016127aa565b935050610100612a578d828e016127aa565b925050610120612a698d828e016127aa565b9150509295989b9194979a5092959850565b7f4f6666657220646f6573206e6f74206578697374000000000000000000000000600082015250565b6000612ab16014836128f5565b9150612abc82612a7b565b602082019050919050565b60006020820190508181036000830152612ae081612aa4565b9050919050565b7f6f66666572206e6f7420617661696c61626c6500000000000000000000000000600082015250565b6000612b1d6013836128f5565b9150612b2882612ae7565b602082019050919050565b60006020820190508181036000830152612b4c81612b10565b9050919050565b7f796f752063616e207769746864726177206f6e6c7920796f7572206f776e206f60008201527f6666657200000000000000000000000000000000000000000000000000000000602082015250565b6000612baf6024836128f5565b9150612bba82612b53565b604082019050919050565b60006020820190508181036000830152612bde81612ba2565b9050919050565b7f4e487b7100000000000000000000000000000000000000000000000000000000600052601160045260246000fd5b6000612c1f82612789565b9150612c2a83612789565b9250828201905080821115612c4257612c41612be5565b5b92915050565b7f4c6f636b2d696e20706572696f64206e6f74206f766572207965740000000000600082015250565b6000612c7e601b836128f5565b9150612c8982612c48565b602082019050919050565b60006020820190508181036000830152612cad81612c71565b9050919050565b6000606082019050612cc9600083018661275a565b612cd6602083018561275a565b612ce360408301846127ec565b949350505050565b60008115159050919050565b612d0081612ceb565b8114612d0b57600080fd5b50565b600081519050612d1d81612cf7565b92915050565b600060208284031215612d3957612d38612784565b5b6000612d4784828501612d0e565b91505092915050565b7f5472616e73666572206f6620746f6b656e31206661696c656400000000000000600082015250565b6000612d866019836128f5565b9150612d9182612d50565b602082019050919050565b60006020820190508181036000830152612db581612d79565b9050919050565b7f5472616e73666572206f6620746f6b656e32206661696c656400000000000000600082015250565b6000612df26019836128f5565b9150612dfd82612dbc565b602082019050919050565b60006020820190508181036000830152612e2181612de5565b9050919050565b7f5472616e73666572206f6620746f6b656e33206661696c656400000000000000600082015250565b6000612e5e6019836128f5565b9150612e6982612e28565b602082019050919050565b60006020820190508181036000830152612e8d81612e51565b9050919050565b7f5472616e73666572206f6620746f6b656e34206661696c656400000000000000600082015250565b6000612eca6019836128f5565b9150612ed582612e94565b602082019050919050565b60006020820190508181036000830152612ef981612ebd565b9050919050565b7f5472616e73666572206f6620746f6b656e35206661696c656400000000000000600082015250565b6000612f366019836128f5565b9150612f4182612f00565b602082019050919050565b60006020820190508181036000830152612f6581612f29565b9050919050565b600081519050612f7b81612793565b92915050565b600060208284031215612f9757612f96612784565b5b6000612fa584828501612f6c565b91505092915050565b600081905092915050565b6000612fc4826128ea565b612fce8185612fae565b9350612fde818560208601612906565b80840191505092915050565b7f20436c6179200000000000000000000000000000000000000000000000000000600082015250565b6000613020600683612fae565b915061302b82612fea565b600682019050919050565b60006130428285612fb9565b915061304e8284612fb9565b915061305982613013565b91508190509392505050565b7f2046697368200000000000000000000000000000000000000000000000000000600082015250565b600061309b600683612fae565b91506130a682613065565b600682019050919050565b60006130bd8285612fb9565b91506130c98284612fb9565b91506130d48261308e565b91508190509392505050565b7f20526f636b200000000000000000000000000000000000000000000000000000600082015250565b6000613116600683612fae565b9150613121826130e0565b600682019050919050565b60006131388285612fb9565b91506131448284612fb9565b915061314f82613109565b91508190509392505050565b7f20576f6f64200000000000000000000000000000000000000000000000000000600082015250565b6000613191600683612fae565b915061319c8261315b565b600682019050919050565b60006131b38285612fb9565b91506131bf8284612fb9565b91506131ca82613184565b91508190509392505050565b7f20576f6f6c200000000000000000000000000000000000000000000000000000600082015250565b600061320c600683612fae565b9150613217826131d6565b600682019050919050565b600061322e8285612fb9565b915061323a8284612fb9565b9150613245826131ff565b91508190509392505050565b7f20666f7220000000000000000000000000000000000000000000000000000000600082015250565b6000613287600583612fae565b915061329282613251565b600582019050919050565b60006132a98284612fb9565b91506132b48261327a565b915081905092915050565b7f496e76616c6964204f6666657200000000000000000000000000000000000000600082015250565b60006132f5600d836128f5565b9150613300826132bf565b602082019050919050565b60006020820190508181036000830152613324816132e8565b9050919050565b7f796f752063616e6e6f742065786365707420796f7572206f776e206f66666572600082015250565b60006133616020836128f5565b915061336c8261332b565b602082019050919050565b6000602082019050818103600083015261339081613354565b9050919050565b7f4f6666657220496e76616c696400000000000000000000000000000000000000600082015250565b60006133cd600d836128f5565b91506133d882613397565b602082019050919050565b600060208201905081810360008301526133fc816133c0565b9050919050565b600061340e82612789565b91507fffffffffffffffffffffffffffffffffffffffffffffffffffffffffffffffff82036134405761343f612be5565b5b600182019050919050565b7f4e487b7100000000000000000000000000000000000000000000000000000000600052601260045260246000fd5b600061348582612789565b915061349083612789565b9250826134a05761349f61344b565b5b828204905092915050565b7f4e487b7100000000000000000000000000000000000000000000000000000000600052604160045260246000fd5b60006134e582612789565b91506134f083612789565b925082820390508181111561350857613507612be5565b5b92915050565b600061351982612789565b915061352483612789565b9250826135345761353361344b565b5b828206905092915050565b7f4e487b7100000000000000000000000000000000000000000000000000000000600052603260045260246000fdfea264697066735822122015cdd6add2715d74dd7f81b1bc6125c4697c2f2c9c41f11e0f2ec3436b7eb93464736f6c63430008100033",
  "linkReferences": {},
  "deployedLinkReferences": {}
}